:10000000D0C00000E9C00000E7C00000E5C000006B
:10001000E3C00000E1C00000DFC00000DDC0000060
:10002000DBC00000D9C00000D7C0000012C400002F
:10003000D3C00000D1C00000CFC00000CDC0000080
:10004000CBC00000C9C00000C7C00000C5C0000090
:10005000C3C00000C1C00000BFC0000091C10000CB
:10006000BBC00000B9C00000B7C00000B5C00000B0
:10007000B3C00000E8040605AF050605AF053B0563
:100080005805AF05770589054403480061007200F3
:100090006D006F006E006900780020004700750059
:1000A0006900740061007200200066006F00720039
:1000B000200050006C006100790053007400610062
:1000C000740069006F006E00AE00330000000A0388
:1000D00053006F006E007900000004030904090258
:1000E0002900010100803209040000020300000021
:1000F0000921000100012289000705020340000ACE
:100100000705810340000A1201100100000008BA2F
:1001100012000213030102000105010905A10115E6
:10012000002501350045017501950D0509190129C5
:100130000D81029503810105012507463B017504E8
:10014000950165140939814265009501810126FFF9
:100150000046FF0009300931093209357508950458
:1001600081020600FF092009210922092309240927
:10017000250926092709280929092A092B950C810F
:10018000020A21269508B1020A2126910226FF03C0
:1001900046FF03092C092D092E092F75109504819E
:1001A00002C011241FBECFEFD2E0DEBFCDBF11E0F1
:1001B000A0E0B1E0E8EAFFE002C005900D92A033B4
:1001C000B107D9F721E0A0E3B1E001C01D92AD3D38
:1001D000B207E1F748D0E6C613CFE091CF01F09126
:1001E000D0018191F093D001E093CF01ED5CF1401B
:1001F00031F42DE431E03093D0012093CF012FB7BB
:10020000F8949091D10191509093D1012FBF08950E
:10021000CF93DF9384B7877F84BF88E10FB6F894CC
:1002200080936000109260000FBE80E190E0909398
:10023000CD008093CC0086E08093CA0082E080935A
:10024000C800C9ECD0E088E18883539A5A9A8AB1F1
:1002500080638AB98BB180638BB9F0D288E98883D7
:10026000DF91CF910895D4DF2FB7F8948DE491E01A
:100270009093CE018093CD019093D0018093CF01D4
:100280002FBF789483E291E0C1D572D48091300180
:1002900090913101892BB1F380913001909131011E
:1002A00001979093310180933001809130019091BA
:1002B0003101892B39F75D9AE5CF0895089583E2DE
:1002C00091E081D5E2EEF0E0808184608083089542
:1002D00083E291E05EC480912E0190912F010097FE
:1002E00029F0019790932F0180932E010895EF92AA
:1002F000FF920F931F93CF93DF9379019FB7423003
:10030000D1F4F8948091D1019FBF893048F0C0E0CA
:10031000D1E063DF899381E0C830D807D1F75DDF92
:1003200088E0E0E0F1E0D70101900D928A95E1F7D5
:1003300088E090E019C0F8948091D1019FBF8C3182
:1003400048F0C8E0D1E049DF8993F1E0C332DF072C
:10035000D1F743DF8BE1E8E0F1E0D70101900D92A6
:100360008A95E1F78BE190E0F8019183808381E049
:10037000DF91CF911F910F91FF90EF900895089515
:100380001F920F920FB60F9211242F938F939F936A
:10039000EF93FF938091CE009EB3943029F52FB751
:1003A000F8949091D1012FBF9038F1F0E091CD01F8
:1003B000F091CE018083E091CD01F091CE01CF018B
:1003C00001969093CE018093CD018D5C914021F4F4
:1003D0008DE491E0928381839FB7F8948091D1015D
:1003E0008F5F8093D1019FBFFF91EF919F918F917C
:1003F0002F910F900FBE0F901F901895292F332724
:1004000023303105B9F05CF42130310569F1223037
:10041000310579F589E290E02EED30E02EC02132F1
:100420003105E9F02232310521F589E890E029E132
:1004300031E023C099278130910541F08230910548
:1004400041F0892BB1F4EAEDF0E005C0EEECF0E00C
:1004500002C0E8E8F0E0849190E09F010EC089E0DE
:1004600090E020EF30E009C082E190E027E031E049
:1004700004C080E090E020E030E0FA013183208386
:10048000089528E030E040E02817390720F44F5F56
:10049000220F331FF9CF842F8295807F0895809398
:1004A000E900EBEEF0E0808181608083EDEEF0E02A
:1004B00010826093EC0040838091EE00881F8827B3
:1004C000881F08951092F40080E08093E900109254
:1004D000F0001092E8001092ED009091EB009E7FEA
:1004E0009093EB008F5F853081F708958091D5015F
:1004F00087FD05C08091E80080FF0DC010C080918D
:10050000E80082FD04C08EB38111F9CF0895809177
:10051000E8008B7707C08EB38111ECCF08958091EE
:10052000E8008E778093E800089585E69091EC00CE
:1005300090FF05C09091E80090FF05C01BC090910E
:10054000E80092FD17C09EB39923B1F09EB3953099
:10055000A9F09091EB0095FD13C09091E10092FFFE
:10056000E5CF9091E1009B7F9093E1008150F1F6FF
:1005700084E0089580E0089582E0089583E008957E
:1005800081E00895EF92FF920F931F93CF93DF9333
:10059000EC018B017A01C9DF81111DC00115110524
:1005A000C9F08091E80085FD0EC08091E8008E774B
:1005B0008093E800E114F10471F3F70109958130AB
:1005C00051F785E008C088818093F100015011093E
:1005D0002196E4CF80E0DF91CF911F910F91FF90A2
:1005E000EF9008952091DB013091DC012617370749
:1005F00048F06115710539F42091E8002E772093B9
:10060000E80001C0B90130E06115710591F1209158
:10061000E80023FD38C02091E80022FF06C0809149
:10062000E80082FF29C080E008952EB3222369F1FB
:100630002EB3253061F12091E80020FFE5CF209115
:10064000F200FC01CF016115710549F0283038F442
:1006500081918093F100615071092F5FF3CF31E0F8
:10066000283009F030E02091E8002E772093E80050
:10067000CBCF3111CCCFD3CF8EB3882331F08EB313
:10068000853069F604C081E0089582E0089583E032
:1006900008952091DB013091DC012617370748F0DF
:1006A0006115710539F42091E8002E772093E80058
:1006B00001C0B90130E06115710599F12091E800A0
:1006C00023FD39C02091E80022FF06C08091E80098
:1006D00082FF2AC080E008952EB3222371F12EB349
:1006E000253069F12091E80020FFE5CF2091F2004C
:1006F000FC01CF016115710551F0283040F484915F
:100700008093F100615071092F5F3196F2CF31E093
:10071000283009F030E02091E8002E772093E8009F
:10072000CACF3111CBCFD2CF8EB3882331F08EB365
:10073000853061F604C081E0089582E0089583E089
:1007400008956115710529F42091E8002B77209315
:10075000E8006115710549F12091E80023FD2AC0E8
:100760002EB3222359F12EB3253051F12091E80008
:1007700022FFF2CFFC018091F200882371F09F01EB
:100780002F5F3F4FC9014091F100408361507109D3
:1007900061157105C9F2F901EECFCF01D5CF8EB346
:1007A000882361F08EB3853059F08091E80080FF96
:1007B000F6CF02C081E0089580E0089582E00895B8
:1007C00083E0089540D042D01EBA1092D301109217
:1007D000D20184E089BD89B5826089BD09B400FE7B
:1007E000FDCF8091D800982F9F779093D800806894
:1007F0008093D800809163008E7F80936300809106
:10080000D8008F7D8093D8008091E0008E7F809308
:10081000E0008091E1008E7F8093E1008091E20012
:1008200081608093E2008091E100877F8093E10006
:100830008091E20088608093E2000895C3DF81E048
:100840008093D40108951092E20008951092E1007F
:1008500008951F920F920FB60F9211242F933F937A
:100860004F935F936F937F938F939F93AF93BF93B8
:10087000EF93FF938091E10080FF1BC08091E20025
:1008800080FF17C08091E1008E7F8093E10080910E
:10089000E2008E7F8093E2008091E200806180938D
:1008A000E2008091D80080628093D80019BC1EBA03
:1008B00005DD8091E10084FF29C08091E20084FF82
:1008C00025C084E089BD89B5826089BD09B400FE78
:1008D000FDCF8091D8008F7D8093D8008091E1007A
:1008E0008F7E8093E1008091E2008F7E8093E20012
:1008F0008091E20081608093E2008091D30188239F
:1009000011F084E001C081E08EBBD7DC8091E10072
:1009100083FF22C08091E20083FF1EC08091E1002E
:10092000877F8093E10082E08EBB1092D30180919B
:10093000E1008E7F8093E1008091E2008E7F8093C2
:10094000E2008091E20080618093E200BBDD42E042
:1009500060E080E0A4DD0BD18091E10082FF0AC05D
:100960008091E20082FF06C08091E1008B7F80933E
:10097000E100B1DCFF91EF91BF91AF919F918F9119
:100980007F916F915F914F913F912F910F900FBE8B
:100990000F901F9018951F93CF93DF9300D0CDB782
:1009A000DEB7E5EDF1E08091F100819381E0ED3D6E
:1009B000F807C9F72091D5013091D601832F90E037
:1009C0008A30910508F0CBC0FC01E65CFF4FC7C23E
:1009D000203881F0223809F0C2C08091D901877097
:1009E0008093E9009091EB0095FB992790F9109284
:1009F000E90002C09091D2018091E800877F809346
:100A0000E8009093F1001092F1007CC0822F8D7F5E
:100A100009F0A5C0223009F093C08091D70181115F
:100A200024C02091D901277009F48AC02093E900DD
:100A30008091EB0080FF84C08091EB00333011F493
:100A4000806211C080618093EB0081E090E0022E13
:100A500001C0880F0A94EAF78093EA001092EA0036
:100A60008091EB0088608093EB001092E900809108
:100A7000E800877F4AC0211172C01091D701809190
:100A8000E800877F8093E80031DD8091E80080FDF9
:100A900004C08EB38111F9CF53C0812F8F7711F02D
:100AA00093E001C092E09EBB80688093E30048C061
:100AB0002058223008F053C0AE014F5F5F4F609165
:100AC000D9018091D7019091D80198DC0097C1F1AC
:100AD0002091E800277F2093E800BC0189819A815A
:100AE000D8DD8091E8008B778093E80029C020381A
:100AF000B1F58091E800877F8093E8008091D30171
:100B00008093F1008091E8008E778093E800EEDC1E
:100B100017C0211124C09091D701923088F48091A0
:100B2000E800877F8093E8009093D301DFDC809119
:100B3000D301882311F084E001C083E08EBBBFDBCA
:100B40008091E80083FF0DC08091EB00806280936C
:100B5000EB008091E800877F8093E80002C0B8DB5B
:100B6000EFCF0F900F90DF91CF911F9108950895CF
:100B7000CF938EB3882359F0C091E900C7701092CB
:100B8000E9008091E80083FD06DFC093E900CF9182
:100B900008958F929F92AF92BF92CF92DF92EF9281
:100BA000FF920F931F93CF93DF9300D01F92CDB787
:100BB000DEB77C01ADB6BEB68091E80083FFEEC023
:100BC000F701808190E02091D9013091DA01281756
:100BD000390709F0E3C08091D601833009F490C051
:100BE00030F4813071F0823009F4C0C0D7C08A304F
:100BF00009F4A5C08B3009F490C0893009F0CEC04B
:100C00004CC08091D501813A09F0C8C08DB69EB61E
:100C10008091E800877F8093E8001A821982809192
:100C2000D7011091D8018B83F701478150E08DB730
:100C30009EB7841B950B0FB6F8949EBF0FBE8DBF59
:100C4000EDB7FEB731966F0160E070E0CF01A3D140
:100C50004FEF410F8E010F5F1F4F9601BE016D5F79
:100C60007F4FC70144DBF70185819681009721F012
:100C7000478150E0B60186D11092E90069817A81FE
:100C8000C601B0DC8091E8008B778093E8000FB656
:100C9000F8949EBE0FBE8DBE81C08091D501813279
:100CA00009F07CC08091E800877F8093E800009184
:100CB000DB011091DC019090D7018090D8018DB7B5
:100CC0009EB7801B910B0FB6F8949EBF0FBE8DBFD1
:100CD000EDB7FEB731966F01B801CF0132DD4FEFAE
:100CE000480D9601692DC7014ADB8091E8008E7797
:100CF0008093E8000FB6F894BEBE0FBEADBE4EC0E6
:100D00008091D501813A09F049C08091E800877F40
:100D10008093E800F701808539C08091D501813248
:100D2000E9F58091E800877F8093E8009091D701F2
:100D300081E0911101C080E0F70180872EC0809191
:100D4000D501813259F58091E800877F8093E800D2
:100D50008091D7019091D801882736E096958795A4
:100D60003A95E1F7F7019287818717C08091D50105
:100D7000813AA1F48091E800877F8093E800F70131
:100D80008185928596958795969587958093F100B4
:100D90008091E8008E778093E800A8DB0FB6F89486
:100DA000BEBE0FBEADBE0F900F900F90DF91CF91E2
:100DB0001F910F91FF90EF90DF90CF90BF90AF9079
:100DC0009F908F900895CF93DF93FC01DC011896DC
:100DD00085E0ED0119928A95E9F781E0808784EF3B
:100DE00091E092878187228133818481882311F069
:100DF000C4E001C0C0E0D181C90143DB4C2F482BC6
:100E0000426061EC8D2FDF91CF9149CB5F926F9261
:100E10007F928F929F92AF92BF92CF92DF92EF928A
:100E2000FF920F931F93CF93DF9300D01F92CDB704
:100E3000DEB77C01ADB6BEB68EB3843009F077C0A4
:100E4000F70181818093E9008091E80085FF6FC000
:100E50008DB69EB6478150E08DB79EB7841B950B2B
:100E60000FB6F8949EBF0FBE8DBFEDB7FEB731969B
:100E70006F011B821A82198260E070E0CF018BD073
:100E80008E010F5F1F4F960140E0BE016D5F7F4FE7
:100E9000C7012DDA682EF70181859285892B41F0F3
:100EA00021E083859485892B09F020E0722E01C012
:100EB000712CF701058116810115110589F0498111
:100EC0005A81B801C60151D055245394892B09F495
:100ED000512CF701478150E0B601C80153D001C041
:100EE000512C29813A81232BE9F0611004C0511063
:100EF00002C070FE17C0F7018185928594878387B1
:100F000081818093E9008B8181118093F100698157
:100F10007A8140E050E0C60135DB8091E8008E77B1
:100F20008093E8000FB6F8949EBE0FBE8DBE0FB63C
:100F3000F894BEBE0FBEADBE0F900F900F90DF9124
:100F4000CF911F910F91FF90EF90DF90CF90BF90C6
:100F5000AF909F908F907F906F905F900895EE0F6D
:100F6000FF1F0590F491E02D0994FB01DC0104C002
:100F70008D910190801921F441505040C8F7881B91
:100F8000990B0895FB01DC0102C001900D924150C4
:100F90005040D8F70895DC0101C06D934150504096
:080FA000E0F70895F894FFCF7B
:100FA8002126010600000000000008807F807F00E5
:100FB8000000000000000000000000000200020025
:100FC800020002000140000032011B000000000086
:00000001FF
